{
  "contractName": "Patientdata",
  "abi": [
    {
      "anonymous": false,
      "inputs": [
        {
          "indexed": false,
          "internalType": "address",
          "name": "patientAddress",
          "type": "address"
        },
        {
          "indexed": false,
          "internalType": "string",
          "name": "name",
          "type": "string"
        }
      ],
      "name": "PatientRegistered",
      "type": "event"
    },
    {
      "inputs": [
        {
          "internalType": "address",
          "name": "",
          "type": "address"
        }
      ],
      "name": "patients",
      "outputs": [
        {
          "internalType": "string",
          "name": "name",
          "type": "string"
        },
        {
          "internalType": "uint256",
          "name": "age",
          "type": "uint256"
        },
        {
          "internalType": "string",
          "name": "gender",
          "type": "string"
        },
        {
          "internalType": "string",
          "name": "diagnosis",
          "type": "string"
        }
      ],
      "stateMutability": "view",
      "type": "function",
      "constant": true
    },
    {
      "inputs": [
        {
          "internalType": "string",
          "name": "_name",
          "type": "string"
        },
        {
          "internalType": "uint256",
          "name": "_age",
          "type": "uint256"
        },
        {
          "internalType": "string",
          "name": "_gender",
          "type": "string"
        },
        {
          "internalType": "string",
          "name": "_diagnosis",
          "type": "string"
        }
      ],
      "name": "registerPatient",
      "outputs": [],
      "stateMutability": "nonpayable",
      "type": "function"
    },
    {
      "inputs": [
        {
          "internalType": "address",
          "name": "_addr",
          "type": "address"
        }
      ],
      "name": "getPatient",
      "outputs": [
        {
          "internalType": "string",
          "name": "",
          "type": "string"
        },
        {
          "internalType": "uint256",
          "name": "",
          "type": "uint256"
        },
        {
          "internalType": "string",
          "name": "",
          "type": "string"
        },
        {
          "internalType": "string",
          "name": "",
          "type": "string"
        }
      ],
      "stateMutability": "view",
      "type": "function",
      "constant": true
    }
  ],
  "bytecode": "0x608060405234801561001057600080fd5b50610ab4806100206000396000f3fe608060405234801561001057600080fd5b50600436106100415760003560e01c80630869cfbc14610046578063b5368e2014610079578063fa2323d2146100ac575b600080fd5b610060600480360381019061005b91906106ff565b6100c8565b604051610070949392919061085a565b60405180910390f35b610093600480360381019061008e91906106ff565b610290565b6040516100a3949392919061085a565b60405180910390f35b6100c660048036038101906100c19190610728565b6104c8565b005b60006020528060005260406000206000915090508060000180546100eb906109af565b80601f0160208091040260200160405190810160405280929190818152602001828054610117906109af565b80156101645780601f1061013957610100808354040283529160200191610164565b820191906000526020600020905b81548152906001019060200180831161014757829003601f168201915b50505050509080600101549080600201805461017f906109af565b80601f01602080910402602001604051908101604052809291908181526020018280546101ab906109af565b80156101f85780601f106101cd576101008083540402835291602001916101f8565b820191906000526020600020905b8154815290600101906020018083116101db57829003601f168201915b50505050509080600301805461020d906109af565b80601f0160208091040260200160405190810160405280929190818152602001828054610239906109af565b80156102865780601f1061025b57610100808354040283529160200191610286565b820191906000526020600020905b81548152906001019060200180831161026957829003601f168201915b5050505050905084565b6060600060608060008060008773ffffffffffffffffffffffffffffffffffffffff1673ffffffffffffffffffffffffffffffffffffffff1681526020019081526020016000206040518060800160405290816000820180546102f2906109af565b80601f016020809104026020016040519081016040528092919081815260200182805461031e906109af565b801561036b5780601f106103405761010080835404028352916020019161036b565b820191906000526020600020905b81548152906001019060200180831161034e57829003601f168201915b505050505081526020016001820154815260200160028201805461038e906109af565b80601f01602080910402602001604051908101604052809291908181526020018280546103ba906109af565b80156104075780601f106103dc57610100808354040283529160200191610407565b820191906000526020600020905b8154815290600101906020018083116103ea57829003601f168201915b50505050508152602001600382018054610420906109af565b80601f016020809104026020016040519081016040528092919081815260200182805461044c906109af565b80156104995780601f1061046e57610100808354040283529160200191610499565b820191906000526020600020905b81548152906001019060200180831161047c57829003601f168201915b505050505081525050905080600001518160200151826040015183606001519450945094509450509193509193565b6040518060800160405280858152602001848152602001838152602001828152506000803373ffffffffffffffffffffffffffffffffffffffff1673ffffffffffffffffffffffffffffffffffffffff16815260200190815260200160002060008201518160000190805190602001906105439291906105ca565b5060208201518160010155604082015181600201908051906020019061056a9291906105ca565b5060608201518160030190805190602001906105879291906105ca565b509050507fc85b128388b9c331a2a5485dce4cd0f3db9f7c279d327ce95d6d39d6c94644c733856040516105bc92919061082a565b60405180910390a150505050565b8280546105d6906109af565b90600052602060002090601f0160209004810192826105f8576000855561063f565b82601f1061061157805160ff191683800117855561063f565b8280016001018555821561063f579182015b8281111561063e578251825591602001919060010190610623565b5b50905061064c9190610650565b5090565b5b80821115610669576000816000905550600101610651565b5090565b600061068061067b846108e5565b6108b4565b90508281526020810184848401111561069857600080fd5b6106a384828561096d565b509392505050565b6000813590506106ba81610a50565b92915050565b600082601f8301126106d157600080fd5b81356106e184826020860161066d565b91505092915050565b6000813590506106f981610a67565b92915050565b60006020828403121561071157600080fd5b600061071f848285016106ab565b91505092915050565b6000806000806080858703121561073e57600080fd5b600085013567ffffffffffffffff81111561075857600080fd5b610764878288016106c0565b9450506020610775878288016106ea565b935050604085013567ffffffffffffffff81111561079257600080fd5b61079e878288016106c0565b925050606085013567ffffffffffffffff8111156107bb57600080fd5b6107c7878288016106c0565b91505092959194509250565b6107dc81610931565b82525050565b60006107ed82610915565b6107f78185610920565b935061080781856020860161097c565b61081081610a3f565b840191505092915050565b61082481610963565b82525050565b600060408201905061083f60008301856107d3565b818103602083015261085181846107e2565b90509392505050565b6000608082019050818103600083015261087481876107e2565b9050610883602083018661081b565b818103604083015261089581856107e2565b905081810360608301526108a981846107e2565b905095945050505050565b6000604051905081810181811067ffffffffffffffff821117156108db576108da610a10565b5b8060405250919050565b600067ffffffffffffffff821115610900576108ff610a10565b5b601f19601f8301169050602081019050919050565b600081519050919050565b600082825260208201905092915050565b600061093c82610943565b9050919050565b600073ffffffffffffffffffffffffffffffffffffffff82169050919050565b6000819050919050565b82818337600083830152505050565b60005b8381101561099a57808201518184015260208101905061097f565b838111156109a9576000848401525b50505050565b600060028204905060018216806109c757607f821691505b602082108114156109db576109da6109e1565b5b50919050565b7f4e487b7100000000000000000000000000000000000000000000000000000000600052602260045260246000fd5b7f4e487b7100000000000000000000000000000000000000000000000000000000600052604160045260246000fd5b6000601f19601f8301169050919050565b610a5981610931565b8114610a6457600080fd5b50565b610a7081610963565b8114610a7b57600080fd5b5056fea2646970667358221220cfa31822a703e4015607c40b42af27cba0ef659dab5d372c7691b4323a602d1264736f6c63430008000033",
  "immutableReferences": {},
  "source": "// SPDX-License-Identifier: MIT\r\npragma solidity ^0.8.0;\r\n\r\ncontract Patientdata {\r\n\r\n    struct Patient {\r\n        string name;\r\n        uint age;\r\n        string gender;\r\n        string diagnosis;\r\n    }\r\n\r\n    mapping(address => Patient) public patients;\r\n\r\n    event PatientRegistered(address patientAddress, string name);\r\n\r\n    function registerPatient(string memory _name, uint _age, string memory _gender, string memory _diagnosis) public {\r\n        patients[msg.sender] = Patient(_name, _age, _gender, _diagnosis);\r\n        emit PatientRegistered(msg.sender, _name);\r\n    }\r\n\r\n    function getPatient(address _addr) public view returns (string memory, uint, string memory, string memory) {\r\n        Patient memory p = patients[_addr];\r\n        return (p.name, p.age, p.gender, p.diagnosis);\r\n    }\r\n}\r\n",
  "sourcePath": "C:\\Users\\tolet\\OneDrive - K L University\\Desktop\\EBDC\\contracts\\Patientdata.sol",
  "compiler": {
    "name": "solc",
    "version": "0.8.0+commit.c7dfd78e.Emscripten.clang"
  },
  "schemaVersion": "3.4.16",
  "updatedAt": "2025-04-16T05:49:45.997Z",
  "networkType": "ethereum",
  "devdoc": {
    "kind": "dev",
    "methods": {},
    "version": 1
  },
  "userdoc": {
    "kind": "user",
    "methods": {},
    "version": 1
  }
}